:030000000209D31F
:0C09D300787FE4F6D8FD758135020A1A21
:100BC6002057594D203230323231323132313820CD
:100BD600002020546F204D792048656172742020D2
:100BE600200054696D652069732030303A30303A00
:020BF60030309D
:0D0D310002340000C100012358022100011E
:100B33007508FF75090B750AC6750BFF750C0B75E8
:100B43000DD7120D0FAB0BAA0CA90DE4F512FD1274
:100B53000CCAAB08AA09A90A120CC5120CFC120B89
:100B6300F8A2A792A620A708120CBF120D2180F1AC
:100B730030A7EEC28CC2A9120A5FD28CD2A980E13F
:10090F00752358E523645860030209D220A7030218
:10091F0009D275907FC2907F01FE120C30E5906472
:10092F007E602D120C2CAF90EF24C2601B24E06070
:10093F001224F0600924F87012752301800D7523BD
:10094F00048008752307800375230BE590B47EFBA5
:10095F00D290C291E590647D602D120C2CAF90EF78
:10096F0024C3601B24E0601224F0600924F8701285
:10097F00752302800D75230580087523088003E415
:10098F00F523E590B47DFBD291C292E590647B6034
:10099F002D120C2CAF90EF24C5601B24E0601224A5
:1009AF00F0600924F87012752303800D75230680FB
:1009BF0008752309800375230CE590B47BFBD29255
:0409CF0002091222E5
:0A0C2600C2A1C2A28F807F017E00F0
:100C3000E4FDFCC3ED9FEC9E5015E4FBFA0BBB00FA
:0F0C4000010AEB64704A70F50DBD00010C80E4F1
:010C4F002282
:0D0D3F00C2A0120C26D2A2120C30C2A222B9
:0D0D4C00D2A0120C26D2A2120C30C2A2229C
:100CE0008F13A905E5137007E92480FF120D3FE576
:0C0CF00013B40107E924C0FF120D3F22DD
:100C50008B138A148915AB13AA14A9151208F66010
:100C6000130515E5157002051414F91208F6FF12A4
:050C70000D4C80E222A2
:100D0F007F38120D3F120D597F06120D3F7F0102E2
:020D1F000D3F86
:050D59007F0C020D3FBC
:050D5E007F08020D3FBB
:0B0CBF007B007A007924E4F5127D012F
:100CCA008B0E8A0F8910AF05AD12120CE0AB0EAA7B
:060CDA000FA910020C50EE
:100CFC005389F0438902758CA4758AA4D2A9D28C2D
:030D0C00D2AF2241
:03000B00020ADB0B
:100ADB00C0E0C0F0C083C082C0D075D000C000C0E1
:100AEB0001C002C003C004C005C006C0070535E540
:100AFB003570020534C39410E5349427400F7534D8
:100B0B0000753500120C75EF4E6002D200D007D085
:100B1B0006D005D004D003D002D001D000D0D0D065
:080B2B0082D083D0F0D0E0324B
:100C7500E533C39439500405338016753330E532B6
:100C8500C394355004053280087532307E007F01EB
:050C950022E4FEFF2235
:100C9A00E530C39439500405308016753030E52F9D
:100CAA00C394355004052F8008752F307E007F01CC
:050CBA0022E4FEFF2210
:100B8300E52DC39439500AE52CC394325003052D47
:100B930022E52DB4390DE52CC394325006752D3062
:100BA300052C22E52DC394335008E52CB4320305FC
:100BB3002D22E52DB4330BE52CB43206752D30759B
:030BC3002C3022B1
:100BF800780E7C007D007BFF7A0B79E87E007F1001
:100C08001208D0E4FFFE740E2FF8E6FD74242FF8C6
:0D0C1800A6050FBF00010EEF64104E70E93D
:010C250022AC
:100D210030000A120C9AEF4E6003120B83C20022AC
:100A5F00120CBF12090FE5217071E52224FE6023ED
:100A6F0014603914604F24037061E523C39403505D
:100A7F005AE5232430F52C120CBF0522E522700213
:100A8F00052122E523C3940A5041E5232430F52D97
:100A9F00120CBF0522E5227002052122E523C39423
:100AAF00065028E5232430F52F120CBF0522E5222E
:100ABF007002052122E523C3940A500FE523243049
:0C0ACF00F530120CBF75210075220122C9
:1009DF00020B33E493A3F8E493A34003F68001F2F0
:1009EF0008DFF48029E493A3F85407240CC8C33319
:1009FF00C4540F4420C8834004F456800146F6DFE8
:100A0F00E4800B0102040810204080900D31E47E39
:100A1F00019360BCA3FF543F30E509541FFEE493DC
:100A2F00A360010ECF54C025E060A840B8E493A3A3
:100A3F00FAE493A3F8E493A3C8C582C8CAC583CACE
:100A4F00F0A3C8C582C8CAC583CADFE9DEE780BE86
:010D3E0000B4
:10080000E709F608DFFA8046E709F208DFFA803EDA
:1008100088828C83E709F0A3DFFA8032E309F608C7
:10082000DFFA8078E309F208DFFA807088828C832F
:10083000E309F0A3DFFA806489828A83E0A3F608E3
:10084000DFFA805889828A83E0A3F208DFFA804CBD
:1008500080D280FA80C680D4806980F28033801094
:1008600080A680EA809A80A880DA80E280CA8033FD
:1008700089828A83ECFAE493A3C8C582C8CCC58375
:10088000CCF0A3C8C582C8CCC583CCDFE9DEE78045
:100890000D89828A83E493A3F608DFF9ECFAA9F0C4
:1008A000EDFB2289828A83ECFAE0A3C8C582C8CC1A
:1008B000C583CCF0A3C8C582C8CCC583CCDFEADE33
:1008C000E880DB89828A83E493A3F208DFF980CC95
:1008D00088F0EF60010E4E60C388F0ED2402B4048E
:1008E0000050B9F582EB2402B4040050AF23234535
:0608F00082239008507302
:1008F600BB010689828A83E0225002E722BBFE0200
:09090600E32289828A83E4932232
:00000001FF
