:03000000020800F3
:0C080000787FE4F6D8FD75811E020847E1
:100A3A000C11C0F9A4B0999282F8809088830110B1
:100A4A00FF020B0000020D000102080000021D0057
:040A5A0000010A4E3F
:10088C00120A5FC2A4E4F59020A7FD30A7FD750DF8
:10089C0000750E01D2A475080075090A1209D3E57A
:1008AC001E6401451D7006F51DF51E80DBE5B0F4D8
:1008BC006019E510B4FF1485B00F120992120944A7
:1008CC00750A59750D00750E01D2A420A7CE30A75C
:1008DC00FD750D00750E01D2A47510FF751D007508
:0708EC001E01750A4E80B5E4
:1009D300120944D3E5099400E50894004019D3E5CE
:1009E30009940AE5089400500E74102509F8E6FFEF
:1009F3007D047C0002094A750A4E750D00750E01CF
:0C0A0300D2A47510FF751D00751E0122A5
:03000B000208F3F5
:1008F300C0E0C0D0050CE50C7002050BC39410E5F5
:100903000B94274037750B00750C00D3E50E94004C
:10091300E50D9400400CD2A4E50E150E7006150DDE
:100923008002C2A4D3E5099400E5089400400DE5D4
:100933000AB44E08E509150970021508D0D0D0E0B5
:010943003281
:100A0F00D3EF9400EE940040217D027C007BEF7ABF
:100A1F0000EB1B70011AEB4A70F7ED1D70011CED16
:0A0A2F004C70EAEF1F70D91E80D64C
:010A3900229A
:060944007D017C00AF10F4
:10094A00EC7033ED24FE6012146019146020240345
:10095A007024D2A0C2A1C2A2C2A3C2A0D2A1C2A222
:10096A00C2A38012C2A0C2A1D2A2C2A38008C2A0FE
:10097A00C2A1C2A2D2A38F807F017E00120A0FC237
:08098A00A0C2A1C2A2C2A32277
:10099200E50F2481603724C0602F24E0602724F013
:1009A200601F24F8601724FC600F24FE6007147097
:1009B2001F8512102285131022851410228515100E
:1009C20022851610228517102285181022851910EB
:0109D2002202
:100A5F005389F0438902758CA4758AA4D2A9D28CCC
:030A6F00D2AF22E1
:10080C0002088CE493A3F8E493A34003F68001F26E
:10081C0008DFF48029E493A3F85407240CC8C333ED
:10082C00C4540F4420C8834004F456800146F6DFBC
:10083C00E4800B0102040810204080900A3AE47E08
:10084C00019360BCA3FF543F30E509541FFEE493B1
:10085C00A360010ECF54C025E060A840B8E493A378
:10086C00FAE493A3F8E493A3C8C582C8CAC583CAA3
:10087C00F0A3C8C582C8CAC583CADFE9DEE780BE5B
:010A5E000097
:00000001FF
