:030000000209EB07
:0C09EB00787FE4F6D8FD75815E020A32C8
:100C830073656C6563743A73746F707761746368CA
:100C93000073656C6563743A736C6F742067616D80
:100CA3006500206261636B3A3C202020206F6B3A21
:100CB3003E200053747261743A3E202020426163E7
:100CC3006B3A3C0050617573653A552020436C655F
:050CD30061723A4400CB
:100BCD0001566E015A740357FF0C830353FF0C94A7
:100950007508FF75090C750AA5120F38AB57AA5810
:10096000A959E4F5117D01120F0FAB08AA09A90AD4
:10097000E4F5117D02120F0F120F25120F5BE55ADD
:1009800064746005E55AB46705120AEB80F0E55A15
:1009900064546005E55AB447E5E55A24B9602B2450
:1009A000F370DBD28CD2A9120800C2A9AB57AA58A7
:1009B000A959E4F5117D01120F0FAB08AA09A90A84
:1009C000E4F5117D02120F0F80B4120D68AB57AA27
:1009D00058A959E4F5117D01120F0FAB08AA09A916
:0B09E0000AE4F5117D02120F0F809356
:100A7700EF4E606130A30930A40630A50320A64FCE
:100A870000000020A31030A40D30A50A30A607757A
:100A97005675C290803F30A31020A40D30A50A30B0
:100AA700A607755664C290802C30A31030A40D2081
:100AB700A50A30A60775566CC290801930A310306E
:100AC700A40D30A50A20A607755672C2908006EFBE
:100AD70064014E609B30A3FD30A4FA30A5F730A621
:040AE700F4D2902293
:100AEB007F017E00120A77E5562494603724FA6062
:100AFB003324FD600424117056E55AB47413AB53C0
:100B0B00AA54A955E4F5117D01120F0F755A678090
:100B1B003EAB57AA58A959E4F5117D01120F0F7579
:100B2B005A74802BE55A248C6011240D70217BFFA5
:100B3B007A0C79B6E4F5117D02800B7BFF7A0C7988
:100B4B00C7E4F5117D01120F0F74E0255AF55A75A4
:030B5B00566E22B1
:100EBF00C2A0C2A1C2A28F807F017E00120E64D297
:0B0ECF00A27F017E00120E64C2A2226E
:100EDA00D2A0C2A1C2A28F807F017E00120E64D26C
:0B0EEA00A27F017E00120E64C2A22253
:100E84008F128D13E512B40108E5132480FF120EAE
:0F0E9400BFE512B40208E51324C0FF120EBF22FF
:100DD3008B128A138914AB12AA13A9141208AC60DC
:100DE300130514E5147002051314F91208ACFF126D
:050DF3000EDA80E2228F
:100F38007F38120EBF120F7C7F06120EBF7F010290
:020F48000EBFDA
:050F7C007F0C020EBF16
:050F81007F08020EBF15
:100F0F008B0D8A0E890FAF05AD11120E84AB0DAA92
:060F1F000EA90F020DD324
:100F4A0050617573653A552020436C6561723A4465
:010F5A000096
:100BDD0002310000C100102154696D696E673A2021
:100BED0030303A30303A3030103354696D696E67B9
:100BFD003A2030303A30303A3030104354696D6518
:0C0C0D0050696E3A20203A20203A203036
:03000B00020C2BB9
:100C2B00C0E0C0F0C083C082C0D075D000C000C08F
:100C3B0001C002C003C004C005C006C0070532E5F1
:100C4B003270020531C39410E5319427400F753192
:100C5B0000753200120DF8EF4E6002D200D007D0B3
:100C6B0006D005D004D003D002D001D000D0D0D014
:080C7B0082D083D0F0D0E032FA
:10080000E55A645460030208AB120F6C7B007A0057
:100810007921E4F5117D02120F0F7F057E00120A87
:1008200077E556B46C09755A74C28C75566E22E51C
:1008300056B47204B28C806DE556646470307BFFF0
:100840007A0F794AF5117D01120F0FE4F50BF50CC3
:10085000AF0C74332FF8E6FE74212FF8A606050CB2
:10086000E50C7002050B6410450B70E48037E5560B
:1008700064757031F50B750C10AF0C74212FF8E610
:10088000FE74432FF8A606E50C150C7002150BE557
:100890000C6407450B70E27B007A007943E4F511A4
:0B08A0007D01120F0F75566E0208005C
:0108AB00222A
:100E6400E4FDFCC3ED9FEC9E5015E4FBFA0BBB00C4
:0F0E7400010AEB64704A70F50DBD00010C80E4BB
:010E8300224C
:100F25005389F0438902758CA4758AA4C2A9C28C21
:030F3500D2AF2216
:100DF800E530C39439500405308016753030E52F3E
:100E0800C394355004052F8008752F307E007F016C
:050E180022E4FEFF22B0
:100E1D00E52DC394395004052D8016752D30E52C24
:100E2D00C394355004052C8008752C307E007F014D
:050E3D0022E4FEFF228B
:100D2500E52AC39439500AE529C394325003052AAC
:100D350022E52AB4390DE529C394325006752A30C7
:100D4500052922E52AC394335008E529B432030561
:100D55002A22E52AB4330BE529B43206752A307503
:030D650029302210
:100F6C0030000A120E1DEF4E6003120D25C2002236
:100E4200546F702073636F72653A303030303030D7
:100E520000596F7572204C75636B793A585858581F
:020E6200580036
:100C1900021A000005155858585858011C4E011D54
:010C290000CA
:100D68007BFF7A0E7942E4F5117D01120F0FE55AE7
:100D78006447702B7F05FE120A77E556B46C077539
:100D88005A6775566E22E556B472E3E51C24A760CF
:100D980009240B70D9120DA880D4120EA380CF227B
:03001B00020B5E77
:100B5E00C0E0C0F0C083C082C0D075D000C000C05D
:100B6E0001C002C003C004C005C006C007758C4C8E
:100B7E00758A00051BE51B7002051AC39414E51A4D
:100B8E0094004020751D00120EF5EF2441FF7415E0
:100B9E00251DF8A607051DE51DC3940340E9751A2A
:100BAE0000751B00D007D006D005D004D003D002AC
:0F0BBE00D001D000D0D0D082D083D0F0D0E032A0
:100DA8007BFF7A0E7953E4F5117D02120F0F7F064F
:100DB8007E00120A77E556B46C05755A678008E517
:0B0DC80056B472EA751C5975566E2275
:100EA300D28E7F067E00120A77E556B46C05755A1A
:0C0EB300678005E556B472EA75566E22A1
:100F5B0053890F438910758D4CE4F58BD2ABC28E40
:010F6B002263
:100EF500AD8DAF8BEFFEEDFF120D1A120CD87C00F5
:090F05007D031208C5AE04AF051E
:010F0E0022C0
:1009F700020950E493A3F8E493A34003F68001F2BD
:100A070008DFF48029E493A3F85407240CC8C33300
:100A1700C4540F4420C8834004F456800146F6DFCF
:100A2700E4800B0102040810204080900BCDE47E87
:100A3700019360BCA3FF543F30E509541FFEE493C4
:100A4700A360010ECF54C025E060A840B8E493A38B
:100A5700FAE493A3F8E493A3C8C582C8CAC583CAB6
:100A6700F0A3C8C582C8CAC583CADFE9DEE780BE6E
:010C2A0000C9
:1008AC00BB010689828A83E0225002E722BBFE024A
:0908BC00E32289828A83E493227D
:1008C500C2D5EC30E709B2D5E4C39DFDE49CFCEE4E
:1008D50030E715B2D5E4C39FFFE49EFE1208FBC3C3
:1008E500E49DFDE49CFC80031208FB30D507C3E4BE
:0608F5009FFFE49EFE22BD
:100CD800AC5BAD5CAE5DAF5E7810EC4D4E4F700412
:100CE8007CA57DA5C3EC13FCED13FDEE13FEEF13FD
:100CF800FF5010EC64CCFCED644CFDEE644EFEEF4E
:100D080064CEFFD8DF8C5B8D5C8E5D8F5EEE547F8A
:0D0D1800FE228E5B8F5C74A5F55DF55E22FA
:1008FB00BC000BBE0029EF8DF084FFADF022E4CCE1
:10090B00F875F008EF2FFFEE33FEEC33FCEE9DECA9
:10091B00984005FCEE9DFE0FD5F0E9E4CEFD22EDEF
:10092B00F8F5F0EE8420D21CFEADF075F008EF2F39
:10093B00FFED33FD4007985006D5F0F222C398FD2A
:05094B000FD5F0EA22C7
:00000001FF
