:03000000020950A2
:0C095000787FE4F6D8FD75815602099707
:100B8A0073656C6563743A73746F707761746368C4
:100B9A000073656C6563743A736C6F742067616D7A
:100BAA00650020203C6261636B202020203E6F6B31
:100BBA0020200053747261743A3E202020426163FF
:100BCA006B3A3C0050617573653A552020436C6559
:050BDA0061723A4400C5
:100BDF0001186E011C740319FF0B8A0315FF0B9B81
:100A55007508FF75090B750AAC120DDFAB19AA1ADB
:100A6500A91BE4F5117D01120DA0AB08AA09A90A7D
:100A7500E4F5117D02120DA0120DCCE51C64746025
:100A850005E51CB46705120AC480F0E51C645460D2
:100A950005E51CB447E5E51C24AC70DFD28C1208D3
:100AA50000AB19AA1AA91BE4F5117D01120DA0AB23
:0F0AB50008AA09A90AE4F5117D02120DA080BC60
:1009DC00EF4E606530A30930A40630A50320A65362
:1009EC0000000020A31130A40E30A50B30A6087512
:1009FC0018757590FE804230A31120A40E30A50B03
:100A0C0030A6087518647590FD802E30A31130A4A3
:100A1C000E20A50B30A60875186C7590FB801A304B
:100A2C00A31130A40E30A50B20A608751872759072
:100A3C00F78006EF64014E609730A3FD30A4FA30C6
:090A4C00A5F730A6F47590FF2215
:100AC4007F017E001209DCE5182494603724FA6063
:100AD4003324FD600424117051E51CB47413AB1568
:100AE400AA16A917E4F5117D01120DA0751C6780E3
:100AF40039AB19AA1AA91BE4F5117D01120DA075D1
:100B04001C748026E51C248C600C240D701C7BFF57
:100B14007A0B79BD80067BFF7A0B79CEE4F5117DE3
:0E0B240001120DA074E0251CF51C75186E2240
:100D6A00C2A0C2A1C2A28F807F017E00120D2BD227
:0B0D7A00A27F017E00120D2BC2A222FE
:100D8500D2A0C2A1C2A28F807F017E00120D2BD2FC
:0B0D9500A27F017E00120D2BC2A222E3
:100D4B008F128D13E512B40108E5132480FF120DE9
:0F0D5B006AE512B40208E51324C0FF120D6A22E4
:100CBC008B128A138914AB12AA13A9141208AC60F4
:100CCC00130514E5147002051314F91208ACFF1285
:050CDC000D8580E222FD
:100DDF007F38120D6A120E127F06120D6A7F010202
:020DEF000D6A8B
:050E12007F0C020D6AD7
:050E17007F08020D6AD6
:100DA0008B0D8A0E890FAF05AD11120D4BAB0DAA3D
:060DB0000EA90F020CBCAD
:100DF10050617573653A552020436C6561723A44C0
:010E010000F0
:100BEF0002310000C100102154696D696E673A200F
:100BFF0030303A30303A3030103354696D696E67A7
:100C0F003A2030303A30303A3030104354696D6505
:0C0C1F0050696E3A20203A20203A203024
:03000B00020B32B3
:100B3200C0E0C0F0C083C082C0D075D000C000C089
:100B420001C002C003C004C005C006C0070532E5EB
:100B52003270020531C39410E5319427400F75318C
:100B620000753200120CE1EF4E6002D200D007D0C5
:100B720006D005D004D003D002D001D000D0D0D00E
:080B820082D083D0F0D0E032F4
:10080000E51C645460030208AB120E027B007A0000
:100810007921E4F5117D02120DA07F057E001209F9
:10082000DCE518B46C09751C74C28C75186E22E571
:1008300018B47204B28C806DE518646470307BFF6C
:100840007A0D79F1F5117D01120DA0E4F50BF50C8F
:10085000AF0C74332FF8E6FE74212FF8A606050CB2
:10086000E50C7002050B6410450B70E48037E51849
:1008700064757031F50B750C10AF0C74212FF8E610
:10088000FE74432FF8A606E50C150C7002150BE557
:100890000C6407450B70E27B007A007943E4F511A4
:0B08A0007D01120DA075186E0208000B
:0108AB00222A
:100D2B00E4FDFCC3ED9FEC9E5015E4FBFA0BBB00FE
:0F0D3B00010AEB64704A70F50DBD00010C80E4F5
:010D4A002286
:100DCC005389F0438902758CA4758AA4D2A9C28C6C
:030DDC00D2AF2271
:100CE100E530C39439500405308016753030E52F56
:100CF100C394355004052F8008752F307E007F0185
:050D010022E4FEFF22C8
:100D0600E52DC394395004052D8016752D30E52C3C
:100D1600C394355004052C8008752C307E007F0165
:050D260022E4FEFF22A3
:100C7900E52AC39439500AE529C394325003052A59
:100C890022E52AB4390DE529C394325006752A3074
:100C9900052922E52AC394335008E529B43203050E
:100CA9002A22E52AB4330BE529B43206752A3075B0
:030CB900293022BD
:100E020030000A120D06EF4E6003120C79C2002266
:100DB600AF8A7E00120C6E120C2C7C007D07120886
:050DC600C5AE04AF05FD
:010DCB002205
:10095C00020A55E493A3F8E493A34003F68001F252
:10096C0008DFF48029E493A3F85407240CC8C3339C
:10097C00C4540F4420C8834004F456800146F6DF6B
:10098C00E4800B0102040810204080900BDFE47E11
:10099C00019360BCA3FF543F30E509541FFEE49360
:1009AC00A360010ECF54C025E060A840B8E493A327
:1009BC00FAE493A3F8E493A3C8C582C8CAC583CA52
:1009CC00F0A3C8C582C8CAC583CADFE9DEE780BE0A
:010C2B0000C8
:1008AC00BB010689828A83E0225002E722BBFE024A
:0908BC00E32289828A83E493227D
:1008C500C2D5EC30E709B2D5E4C39DFDE49CFCEE4E
:1008D50030E715B2D5E4C39FFFE49EFE1208FBC3C3
:1008E500E49DFDE49CFC80031208FB30D507C3E4BE
:0608F5009FFFE49EFE22BD
:100C2C00AC53AD54AE55AF567810EC4D4E4F7004DE
:100C3C007CA57DA5C3EC13FCED13FDEE13FEEF13A9
:100C4C00FF5010EC64CCFCED644CFDEE644EFEEFFA
:100C5C0064CEFFD8DF8C538D548E558F56EE547F57
:0D0C6C00FE228E538F5474A5F555F55622C7
:1008FB00BC000BBE0029EF8DF084FFADF022E4CCE1
:10090B00F875F008EF2FFFEE33FEEC33FCEE9DECA9
:10091B00984005FCEE9DFE0FD5F0E9E4CEFD22EDEF
:10092B00F8F5F0EE8420D21CFEADF075F008EF2F39
:10093B00FFED33FD4007985006D5F0F222C398FD2A
:05094B000FD5F0EA22C7
:00000001FF
