:03000000020AD31E
:0C0AD300787FE4F6D8FD75817D020B1AD7
:100EA200206261636B3A3C202020206F6B3A3E2027
:100EB2000073656C6563743A73746F707761746301
:100EC200680073656C6563743A736C6F7420676154
:100ED2006D650053747261743A3E20202042616352
:100EE2006B3A3C0050617573653A552020436C653E
:050EF20061723A4400AA
:060D6700011C6E011D7469
:100A38007508FF75090E750AA21210E87BFF7A0E79
:100A480079B3E4F5117D011210ACAB08AA09A90A23
:100A5800E4F5117D021210AC1210C212110BE51D43
:100A680064746005E51DB46705120DDE80F0E51DB0
:100A780064546005E51DB447E5E51D24B9602B24E1
:100A8800F370DBD28CD2A91208D9C28C7BFF7A0E04
:100A980079B3E4F5117D011210ACAB08AA09A90AD3
:100AA800E4F5117D021210AC80B41208007BFF7AC5
:100AB8000E79C4E4F5117D011210ACAB08AA09A99E
:0B0AC8000AE4F5117D021210AC8093CF
:100CF000751C6EEF4E606130A30930A40630A50369
:100D000020A64F00000020A31030A40D30A50A300B
:100D1000A607751C75C290803F30A31020A40D302B
:100D2000A50A30A607751C64C290802C30A3103031
:100D3000A40D20A50A30A607751C6CC2908019303E
:100D4000A31030A40D30A50A20A607751C72C2900E
:100D50008006EF64014E609B30A3FD30A4FA30A5FD
:070D6000F730A6F4D2902247
:100DDE007F017E00120CF0E51C2494603324FA602F
:100DEE002F24FD600424117052E51D7BFFB4741096
:100DFE007A0E79C4E4F5117D011210AC751D6722CF
:100E0E007A0E79B3E4F5117D011210AC751D7422C2
:100E1E00E51D248C6011240D70217BFF7A0E79D58F
:100E2E00E4F5117D02800B7BFF7A0E79E6E4F51175
:0C0E3E007D011210AC74E0251DF51D2292
:10107600C2A0C2A1C2A28F807F017E00121037D209
:0B108600A27F017E00121037C2A222E0
:10109100D2A0C2A1C2A28F807F017E00121037D2DE
:0B10A100A27F017E00121037C2A222C5
:101057008F168D17E516B40108E5172480FF1210C7
:0F10670076E516B40208E51724C0FF12107622B2
:100FC8008B128A138914AB12AA13A91412099460FC
:100FD800130514E5147002051314F9120994FF128D
:050FE800109180E222DF
:1010E8007F3812107612113C7F061210767F0102AB
:0210F800107670
:05113C007F0C0210769B
:051141007F080210769A
:1010AC008B0D8A0E890FAF05AD11121057AB0DAA1F
:0610BC000EA90F020FC88F
:10111C008F15AE03AF05AD06121057AF1502109127
:1010FA0050617573653A552020436C6561723A44B4
:01110A0000E4
:100D6D0002310000C100102154696D696E673A208F
:100D7D0030303A30303A3030103354696D696E6727
:100D8D003A2030303A30303A3030104354696D6586
:0C0D9D0050696E3A20203A20203A2030A5
:03000B00020E4A98
:100E4A00C0E0C0F0C083C082C0D075D000C000C06E
:100E5A0001C002C003C004C005C006C0070532E5D0
:100E6A003270020531C39410E5319427400F753171
:100E7A0000753200120FEDEF4E6002D200D007D09B
:100E8A0006D005D004D003D002D001D000D0D0D0F3
:080E9A0082D083D0F0D0E032D9
:1008D9007B007A007921E4F5117D0202098DE51D7D
:1008E9006454600302099312112C7B007A00792960
:1008F9007511087D021210AC7F057E00120CF0E51F
:100909001CB46C06751D74C28C22E51CB47204B249
:100919008C80CBE51C646470377BFF7A1079FAF51B
:10092900117D011210ACE4F50BF50CC3E50C941024
:10093900E50B6480948050A6AF0C74332FF8E6FE63
:1009490074212FF8A606050CE50C70DF050B80DB7A
:10095900E51C64757088F50B750C10AF0C74212FAC
:10096900F8E6FE74432FF8A606E50C150C7002157F
:100979000BE50C6407450B70E27B007A007943E4D0
:0A098900F5117D011210AC0208E721
:010993002241
:10103700E4FDFCC3ED9FEC9E5015E4FBFA0BBB00EF
:0F104700010AEB64704A70F50DBD00010C80E4E6
:011056002277
:1010C2005389F0438902758CA4758AA4C2A9C28C83
:0310D200D2AF2278
:100FED00E530C39439500405308016753030E52F47
:100FFD00C394355004052F8008752F307E007F0176
:05100D0022E4FEFF22B9
:10101200E52DC394395004052D8016752D30E52C2D
:10102200C394355004052C8008752C307E007F0156
:0510320022E4FEFF2294
:100F4400E52AC39439500AE529C394325003052A8B
:100F540022E52AB4390DE529C394325006752A30A6
:100F6400052922E52AC394335008E529B432030540
:100F74002A22E52AB4330BE529B43206752A3075E2
:030F8400293022EF
:10112C0030000A121012EF4E6003120F44C200225C
:100B5F00546F702073636F72653A303030303030BD
:100B6F0000596F7572204C75636B793A5858585805
:100B7F005800596F7572204C75636B793A4D4D4D16
:100B8F004D4D00796F75722073636F72653A303017
:100B9F0030303100796F75722073636F72653A3040
:100BAF003030303500796F75722073636F72653A2C
:100BBF00303035353000796F75722073636F726521
:100BCF003A303535353500796F75722073636F7232
:080BDF00653A36363636360061
:100DA9002024530000000EFFFF00000010FFFF0089
:100DB900000012FFFF00000014FFFF00000016FFF3
:100DC900FF00000018FFFF05775858585858017D53
:040DD90000017C0099
:10080000E4F50B7BFF7A0B795FF5117D011210ACDB
:10081000E51D644760030208D87F05FE120CF0E571
:100820001CB46C06C28E751D6722E51CB472E1E52E
:100830000BB4070050DA90083DF8282873020852DC
:1008400002086402087F0208920208A50208B802A2
:1008500008CB7BFF7A0B7970E4F5117D021210ACA6
:10086000050B80AC7BFF7A0B7981E4F5117D0212D8
:1008700010AC7FF57EA8120F39D28E050B8091AF98
:100880008DEFFEAD8BEDFF120F39757C01050B026C
:100890000810AF8DEFFEAD8BEDFF120F39757C02A6
:1008A000050B020810AF8DEFFEAD8BEDFF120F3977
:1008B000757C03050B020810757C04AF8DEFFEAD4F
:1008C0008BEDFF120F39050B020810C28EE4F50BF9
:0808D000F57C120C6E02081009
:0108D80022FD
:03001B00020F874A
:100F8700C0E0C0F0C083C082C0D075D000C000C030
:100F970001C002C003C004C005C006C007120BE7AA
:100FA700758DDC758B00D007D006D005D004D00333
:100FB700D002D001D000D0D0D082D083D0F0D0E002
:010FC70032F7
:100BE700857C7DE57DC39405507CE57D75F006A485
:100BF7002455F8E6FE08E6FFE57D75F006A42453C4
:100C0700F80806E6187001068604D39FEE6480F89C
:100C1700EC648098404B1210D5EF2441FF74772580
:100C27007DF8A6077477257DF8E6FFE57D240BFBA5
:100C37007D0212111CE57D75F006A42453F8E4F635
:100C470008F6E57D75F006A42457F8E6FE08E6FFEA
:100C5700E57D75F006A42455F808EF26F618EE365C
:070C6700F6057D020BEA22F5
:100C6E007F017E007D017C00E4F57D7478257DF8A2
:100C7E00E6FB7477257DF8E6B503180DBD00010C73
:100C8E00D3ED9FEE6480F8EC648098400AAE04AF1A
:100C9E000580047C007D01057DE57DB404CDEE70FC
:100CAE0040EF24FE601514601A14601F1460242493
:100CBE0004702E7BFF7A0B7992801E7BFF7A0B7964
:100CCE00A380167BFF7A0B79B4800E7BFF7A0B79AB
:100CDE00C580067BFF7A0B79D6E4F5117D011210E3
:010CEE00AC59
:010CEF0022E2
:10110B0053890F438910758DDCE4F58BD2ABC28EFE
:01111B0022B1
:1010D500C28E120EF77C007D041209ADD28EAE04CD
:0210E500AF0555
:0110E70022E6
:100ADF00020A38E493A3F8E493A34003F68001F2EB
:100AEF0008DFF48029E493A3F85407240CC8C33318
:100AFF00C4540F4420C8834004F456800146F6DFE7
:100B0F00E4800B0102040810204080900D67E47E02
:100B1F00019360BCA3FF543F30E509541FFEE493DB
:100B2F00A360010ECF54C025E060A840B8E493A3A2
:100B3F00FAE493A3F8E493A3C8C582C8CAC583CACD
:100B4F00F0A3C8C582C8CAC583CADFE9DEE780BE85
:010DDD000015
:10099400BB010689828A83E0225002E722BBFE0261
:0909A400E32289828A83E4932294
:1009AD00C2D5EC30E709B2D5E4C39DFDE49CFCEE65
:1009BD0030E715B2D5E4C39FFFE49EFE1209E3C3F1
:1009CD00E49DFDE49CFC80031209E330D507C3E4EC
:0609DD009FFFE49EFE22D4
:100EF700AC18AD19AE1AAF1B7810EC4D4E4F7004FD
:100F07007CA57DA5C3EC13FCED13FDEE13FEEF13DB
:100F1700FF5010EC64CCFCED644CFDEE644EFEEF2C
:100F270064CEFFD8DF8C188D198E1A8F1BEE547F75
:0D0F3700FE228E188F1974A5F51AF51B22E5
:1009E300BC000BBE0029EF8DF084FFADF022E4CCF8
:1009F300F875F008EF2FFFEE33FEEC33FCEE9DECC1
:100A0300984005FCEE9DFE0FD5F0E9E4CEFD22ED06
:100A1300F8F5F0EE8420D21CFEADF075F008EF2F50
:100A2300FFED33FD4007985006D5F0F222C398FD41
:050A33000FD5F0EA22DE
:00000001FF
