:03000000020800F3
:0C080000787FE4F6D8FD758117020847E8
:100915002057204A203230323231323132313820BC
:10092500002020546F204D79204865617274202085
:020935002000A0
:0409E10002160000FA
:10088C007508FF750909750A15750BFF750C097547
:10089C000D261209B5AB0BAA0CA90DE4F512FD122D
:1008AC00098CAB08AA09A90AE4F5127D0112098C7E
:0508BC001209A280FEFC
:03000B00020937B0
:10093700C0E0C0D00517E51770020516C39410E58F
:100947001694274006751600751700D0D0D0E032F0
:0F08C100C2A1C2A28F807F017E001208D0D2A2F6
:1008D000E4FDFCC3ED9FEC9E5015E4FBFA0BBB005E
:0F08E000010AEB64704A70F50DBD00010C80E455
:0108EF0022E6
:1009A2005389F0438902758CA4758AA4D2A9D28C8A
:0309B200D2AF229F
:0809C700C2A01208C1C2A22265
:0809CF00D2A01208C1C2A2224D
:100957008F13A905E5137007E92480FF1209C7E57E
:0C09670013B40107E924C0FF1209C722E5
:1008F0008B138A148915AB13AA14A91512097360F6
:10090000130515E5157002051414F9120973FF1289
:0509100009CF80E22286
:1009B5007F381209C71209D77F061209C77F0102BE
:0209C50009C760
:0509D7007F0C0209C7BE
:0509DC007F080209C7BD
:10098C008B0E8A0F8910AF05AD12120957AB0EAA48
:06099C000FA9100208F093
:10080C0002088CE493A3F8E493A34003F68001F26E
:10081C0008DFF48029E493A3F85407240CC8C333ED
:10082C00C4540F4420C8834004F456800146F6DFBC
:10083C00E4800B01020408102040809009E1E47E62
:10084C00019360BCA3FF543F30E509541FFEE493B1
:10085C00A360010ECF54C025E060A840B8E493A378
:10086C00FAE493A3F8E493A3C8C582C8CAC583CAA3
:10087C00F0A3C8C582C8CAC583CADFE9DEE780BE5B
:0109E5000011
:10097300BB010689828A83E0225002E722BBFE0282
:09098300E32289828A83E49322B5
:00000001FF
