:030000000209FEF4
:0C09FE00787FE4F6D8FD758174020A458C
:100CB40073656C6563743A73746F70776174636899
:100CC4000073656C6563743A736C6F742067616D4F
:100CD4006500206261636B3A3C202020206F6B3AF0
:100CE4003E200053747261743A3E202020426163B6
:100CF4006B3A3C0050617573653A552020436C652E
:050D040061723A440099
:100B790001186E011C740319FF0CB40315FF0CC591
:100963007508FF75090C750AD6120F6FAB19AA1A11
:10097300A91BE4F5117D01120F46AB08AA09A90AC8
:10098300E4F5117D02120F46120F5C120F92E51C63
:1009930064746005E51CB46705120BEE80F0E51C7A
:1009A30064546005E51CB447E5E51C24B9602B24B9
:1009B300F370DBD28CD2A91208B6C2A9AB19AA1A5A
:1009C300A91BE4F5117D01120F46AB08AA09A90A78
:1009D300E4F5117D02120F4680B4120D99AB19AAEA
:1009E3001AA91BE4F5117D01120F46AB08AA09A948
:0B09F3000AE4F5117D02120F4680930C
:100B020075186EEF4E606130A30930A40630A5035C
:100B120020A64F00000020A31030A40D30A50A30FB
:100B2200A607751875C290803F30A31020A40D301F
:100B3200A50A30A607751864C290802C30A3103025
:100B4200A40D20A50A30A60775186CC29080193032
:100B5200A31030A40D30A50A20A607751872C29002
:100B62008006EF64014E609B30A3FD30A4FA30A5ED
:070B7200F730A6F4D2902237
:100BEE007F017E00120B02E5182494603524FA6012
:100BFE003124FD600424117054E51CB47412AB153D
:100C0E00AA16A917E4F5117D01120F46751C67226D
:100C1E00AB19AA1AA91BE4F5117D01120F46751C1A
:100C2E007422E51C248C6011240D70217BFF7A0C3C
:100C3E0079E7E4F5117D02800B7BFF7A0C79F8E4FD
:0E0C4E00F5117D01120F4674E0251CF51C22E5
:100EF600C2A0C2A1C2A28F807F017E00120EB7D20D
:0B0F0600A27F017E00120EB7C2A222E3
:100F1100D2A0C2A1C2A28F807F017E00120EB7D2E1
:0B0F2100A27F017E00120EB7C2A222C8
:100ED7008F128D13E512B40108E5132480FF120E5B
:0F0EE700F6E512B40208E51324C0FF120EF6223E
:100E26008B128A138914AB12AA13A9141208006034
:100E3600130514E5147002051314F9120800FF12C5
:050E46000F1180E22203
:100F6F007F38120EF6120FC37F06120EF67F0102A4
:020F7F000EF66C
:050FC3007F0C020EF698
:050FC8007F08020EF697
:100F46008B0D8A0E890FAF05AD11120ED7AB0DAA08
:060F56000EA90F020E2699
:100FA3008F0BAE03AF05AD06120ED7AF0B020F11B9
:100F810050617573653A552020436C6561723A442E
:010F9100005F
:100B890002310000C100102154696D696E673A2075
:100B990030303A30303A3030103354696D696E670D
:100BA9003A2030303A30303A3030104354696D656C
:0C0BB90050696E3A20203A20203A20308B
:03000B00020C5C88
:100C5C00C0E0C0F0C083C082C0D075D000C000C05E
:100C6C0001C002C003C004C005C006C0070532E5C0
:100C7C003270020531C39410E5319427400F753161
:100C8C0000753200120E4BEF4E6002D200D007D02E
:100C9C0006D005D004D003D002D001D000D0D0D0E3
:080CAC0082D083D0F0D0E032C9
:1008B600E51C64546003020962120FB37B007A00E0
:1008C6007921E4F5117D02120F467F057E00120B99
:1008D60002E518B46C06751C74C28C22E518B47255
:1008E60004B28C80CBE518646470377BFF7A0F798D
:1008F60081F5117D01120F46E4F50BF50CC3E50CED
:100906009410E50B6480948050A6AF0C74332FF8D6
:10091600E6FE74212FF8A606050CE50C70DF050B24
:1009260080DBE51864757088F50B750C10AF0C74D8
:10093600212FF8E6FE74432FF8A606E50C150C7079
:1009460002150BE50C6407450B70E27B007A007913
:0C09560043E4F5117D01120F460208B6C3
:010962002272
:100EB700E4FDFCC3ED9FEC9E5015E4FBFA0BBB0071
:0F0EC700010AEB64704A70F50DBD00010C80E468
:010ED60022F9
:100F5C005389F0438902758CA4758AA4C2A9C28CEA
:030F6C00D2AF22DF
:100E4B00E530C39439500405308016753030E52FEA
:100E5B00C394355004052F8008752F307E007F0119
:050E6B0022E4FEFF225D
:100E7000E52DC394395004052D8016752D30E52CD1
:100E8000C394355004052C8008752C307E007F01FA
:050E900022E4FEFF2238
:100D5600E52AC39439500AE529C394325003052A7B
:100D660022E52AB4390DE529C394325006752A3096
:100D7600052922E52AC394335008E529B432030530
:100D86002A22E52AB4330BE529B43206752A3075D2
:030D9600293022DF
:100FB30030000A120E70EF4E6003120D56C200226B
:100E9500546F702073636F72653A30303030303084
:100EA50000596F7572204C75636B793A58585858CC
:020EB5005800E3
:100BC500026E00000A580064009600C800FA012C65
:100BD5000C62009600A000AA00B400BEFFFF0553FA
:080BE5005858585858017000DF
:100D99007BFF7A0E7995E4F5117D01120F46E51C6A
:100DA900644770277F05FE120B02E518B46C0475C1
:100DB9001C6722E518B472E6D28E7BFF7A0E79A6FB
:0C0DC900E4F5117D02120F46120DD52238
:03001B00020E00D2
:100E0000C0E0C0D0758C04758A00056FE56F700274
:100E1000056EC3940EE56E94004006756E00756F06
:060E200000D0D0D0E0324A
:100DD500E4F570120F2CEF2441FF74532570F8A62B
:100DE500070570E570C3940540E9120A8AE4F570B9
:0B0DF500E570C3940550D9057080F52F
:100A8A00E4F570E57025E02458F808E6161886069D
:100A9A007001164E705874532570F8E6FFE57024FD
:100AAA000BFB7D02120FA3E57025E02462F8E6FE37
:100ABA0008E6FFE57025E02458F8A60608A607E52B
:100ACA007025E02462F8E6FE08E6D39414EE64800A
:100ADA009480401AAE6CAF6D7C007D14120819E543
:100AEA007025E02462F808EF26F618EE36F605704F
:080AFA00E570C39405408C2255
:100F920053890F438910758D04E4F58BD2ABC28E51
:010FA200222C
:100F2C00AD8DAF8BEFFEEDFF120D4B120D097C005A
:090F3C007D0312082BAE04AF0581
:010F45002289
:100A0A00020963E493A3F8E493A34003F68001F296
:100A1A0008DFF48029E493A3F85407240CC8C333ED
:100A2A00C4540F4420C8834004F456800146F6DFBC
:100A3A00E4800B0102040810204080900B79E47EC8
:100A4A00019360BCA3FF543F30E509541FFEE493B1
:100A5A00A360010ECF54C025E060A840B8E493A378
:100A6A00FAE493A3F8E493A3C8C582C8CAC583CAA3
:100A7A00F0A3C8C582C8CAC583CADFE9DEE780BE5B
:010BED000007
:10080000BB010689828A83E0225002E722BBFE02F6
:09081000E32289828A83E4932229
:10081900EF8DF0A4A8F0CF8CF0A428CE8DF0A42EF3
:02082900FE22AD
:10082B00C2D5EC30E709B2D5E4C39DFDE49CFCEEE8
:10083B0030E715B2D5E4C39FFFE49EFE120861C3F7
:10084B00E49DFDE49CFC800312086130D507C3E4F2
:06085B009FFFE49EFE2257
:100D0900AC71AD72AE73AF747810EC4D4E4F700488
:100D19007CA57DA5C3EC13FCED13FDEE13FEEF13CB
:100D2900FF5010EC64CCFCED644CFDEE644EFEEF1C
:100D390064CEFFD8DF8C718D728E738F74EE547F01
:0D0D4900FE228E718F7274A5F573F5742271
:10086100BC000BBE0029EF8DF084FFADF022E4CC7B
:10087100F875F008EF2FFFEE33FEEC33FCEE9DEC44
:10088100984005FCEE9DFE0FD5F0E9E4CEFD22ED8A
:10089100F8F5F0EE8420D21CFEADF075F008EF2FD4
:1008A100FFED33FD4007985006D5F0F222C398FDC5
:0508B1000FD5F0EA2262
:00000001FF
