:030000000208A44F
:0C08A400787FE4F6D8FD7581200208EB97
:100A170073656C6563743A73746F70776174636838
:100A27000073656C6563743A736C6F742067616DEE
:100A3700650020203C6261636B202020203E6F6BA5
:030A47002020006C
:100B60000213000001186E011C740319FF0A170319
:040B700015FF0A283B
:100A4A007508FF75090A750A39120B88AB19AA1AB3
:100A5A00A91BE4F50F7D01120B34AB08AA09A90AF8
:100A6A00E4F50F7D02120B34120B751209D080FBCC
:03000B00020A9F47
:100A9F00C0E0C0D00514E51470020513C39410E52F
:100AAF001394274006751300751400D0D0D0E03290
:10093000EF4E604220A30E30A40B30A50830A60570
:10094000751875803130A30E20A40B30A50830A691
:1009500005751864802030A30E30A40B20A5083044
:10096000A60575186C800F30A3C630A4C330A5C08F
:1009700020A6BD75187230A3FD30A4FA30A5F7305B
:03098000A6F422B8
:1009D0007F017E00120930E518249C600D24EF7021
:1009E00032E51CB4740280078018E51CB47413ABA4
:1009F00015AA16A917E4F50F7D01120B34751C67B3
:100A00008011AB19AA1AA91BE4F50F7D01120B3452
:070A1000751C7475186E22BD
:100AFE00C2A0C2A1C2A28F807F017E00120ABFD205
:0B0B0E00A27F017E00120ABFC2A222DB
:100B1900D2A0C2A1C2A28F807F017E00120ABFD2D9
:0B0B2900A27F017E00120ABFC2A222C0
:100ADF008F108D11E510B40108E5112480FF120A63
:0F0AEF00FEE510B40208E51124C0FF120AFE2232
:100A7A008B108A118912AB10AA11A91212080060F0
:100A8A00130512E5127002051114F9120800FF127B
:050A9A000B1980E222AF
:100B88007F38120AFE120B9A7F06120AFE7F0102B4
:020B98000AFE53
:050B9A007F0C020AFEC1
:050B9F007F08020AFEC0
:100B34008B0B8A0C890DAF05AD0F120ADFAB0BAA24
:060B44000CA90D020A7A63
:100ABF00E4FDFCC3ED9FEC9E5015E4FBFA0BBB006D
:0F0ACF00010AEB64704A70F50DBD00010C80E464
:010ADE0022F5
:100B75005389F0438902758CA4758AA4D2A9D28CB5
:030B8500D2AF22CA
:100B4A00AF8A7E001209C51209837C007D0712084C
:050B5A0019AE04AF0517
:010B5F002273
:1008B000020A4AE493A3F8E493A34003F68001F20A
:1008C00008DFF48029E493A3F85407240CC8C33349
:1008D000C4540F4420C8834004F456800146F6DF18
:1008E000E4800B0102040810204080900B60E47E3D
:1008F000019360BCA3FF543F30E509541FFEE4930D
:10090000A360010ECF54C025E060A840B8E493A3D3
:10091000FAE493A3F8E493A3C8C582C8CAC583CAFE
:10092000F0A3C8C582C8CAC583CADFE9DEE780BEB6
:010B74000080
:10080000BB010689828A83E0225002E722BBFE02F6
:09081000E32289828A83E4932229
:10081900C2D5EC30E709B2D5E4C39DFDE49CFCEEFA
:1008290030E715B2D5E4C39FFFE49EFE12084FC31B
:10083900E49DFDE49CFC800312084F30D507C3E416
:060849009FFFE49EFE2269
:10098300AC1DAD1EAE1FAF207810EC4D4E4F700462
:100993007CA57DA5C3EC13FCED13FDEE13FEEF1355
:1009A300FF5010EC64CCFCED644CFDEE644EFEEFA6
:1009B30064CEFFD8DF8C1D8D1E8E1F8F20EE547FDB
:0D09C300FE228E1D8F1E74A5F51FF520224B
:10084F00BC000BBE0029EF8DF084FFADF022E4CC8D
:10085F00F875F008EF2FFFEE33FEEC33FCEE9DEC56
:10086F00984005FCEE9DFE0FD5F0E9E4CEFD22ED9C
:10087F00F8F5F0EE8420D21CFEADF075F008EF2FE6
:10088F00FFED33FD4007985006D5F0F222C398FDD7
:05089F000FD5F0EA2274
:00000001FF
