:030000000208BE35
:0C08BE00787FE4F6D8FD75812A02090558
:100A4F002057594D20323032323132313231382045
:100A5F00002020546F204D7920486561727420204A
:020A6F00200065
:0B0AF500021B0000021900010108585C
:10094A00751DFF751E0A751F4F7520FF75210A75E3
:10095A002260E4FF7E1078097420F608DEFC7E002F
:10096A007F10120ABCAB20AA21A922E4F527FD12A6
:10097A000AA6AB1DAA1EA91FE4F5277D01120AA625
:10098A00E51A451960DC75907F120800E50864587D
:10099A006003120A2D7B007A007909E4F5277D01AC
:0E09AA00120AA6E51A451960B91209BE80D2DC
:10080000750858E508645860030208BD75907FC2FA
:10081000907F01FE1209C2E590647E602D1209BE30
:10082000AF90EF24C2601B24E0601224F060092422
:10083000F87012750801800D7508048008750807A6
:10084000800375080BE590B47EFBD290C291E590D1
:10085000647D602D1209BEAF90EF24C3601B24E0BD
:10086000601224F0600924F87012750802800D757A
:10087000080580087508088003E4F508E590B47D54
:10088000FBD291C292E590647B602D1209BEAF90BD
:10089000EF24C5601B24E0601224F0600924F87086
:1008A00012750803800D7508068008750809800315
:0E08B00075080CE590B47BFBD292020803227F
:0A09B800C2A1C2A28F807F017E0061
:1009C200E4FDFCC3ED9FEC9E5015E4FBFA0BBB006B
:0F09D200010AEB64704A70F50DBD00010C80E462
:0109E10022F3
:0D0ACE00C2A01209B8D2A21209C2C2A2220F
:0D0ADB00D2A01209B8D2A21209C2C2A222F2
:100A71008F28A905E5287007E92480FF120ACEE531
:0C0A810028B40107E924C0FF120ACE22AD
:100A08008B288A29892AAB28AA29A92A120A8D6043
:100A180013052AE52A7002052914F9120A8DFF1216
:050A28000ADB80E22260
:100ABC007F38120ACE120B017F06120ACE7F01027A
:020ACC000ACE50
:050B01007F0C020ACE8A
:050B06007F08020ACE89
:100AA6008B238A248925AF05AD27120A71AB23AAA9
:060AB60024A925020A0834
:050B0B00EF2430FF2281
:100A2D00E4FFFE740A2FF8E6FD74092FF8A6050FF2
:100A3D00BF00010EEF640F4E70E9AF08120B0B8F64
:010A4D001890
:010A4E002285
:0D0AE8005389F0438901D2A9D28CD2AF22EC
:03000B000209E205
:1009E200C0E0C0D0758D3C758BB0051CE51C700253
:1009F200051BD39414E51B94004006751B00751C5F
:060A020000D0D0D0E0326C
:1008CA0002094AE493A3F8E493A34003F68001F2F1
:1008DA0008DFF48029E493A3F85407240CC8C3332F
:1008EA00C4540F4420C8834004F456800146F6DFFE
:1008FA00E4800B0102040810204080900AF5E47E8F
:10090A00019360BCA3FF543F30E509541FFEE493F2
:10091A00A360010ECF54C025E060A840B8E493A3B9
:10092A00FAE493A3F8E493A3C8C582C8CAC583CAE4
:10093A00F0A3C8C582C8CAC583CADFE9DEE780BE9C
:010B000000F4
:100A8D00BB010689828A83E0225002E722BBFE0267
:090A9D00E32289828A83E493229A
:00000001FF
