:03000000020800F3
:0C080000787FE4F6D8FD75811E020847E1
:100A39000C11C0F9A4B0999282F8809088830110B2
:100A4900FF020B0000020D000102080000021D0058
:040A590000010A4E40
:10088C00120A5EC2A420A7FD30A7FD750D00750EDF
:10089C0001D2A475080075090A1209D2E51E64017B
:1008AC00451D7008F51DF51EC2A680D9E5B0F46093
:1008BC0019E510B4FF1485B00F1209911209437594
:1008CC000A59750D00750E01D2A420A7CC30A7FDD6
:1008DC00750D00750E01D2A47510FF751D00751EE7
:0608EC0001750A4E80B305
:1009D200120943D3E5099400E50894004019D3E5D0
:1009E20009940AE5089400500E74102509F8E6FFF0
:1009F2007D047C00020949750A4E750D00750E01D1
:0C0A0200D2A47510FF751D00751E0122A6
:03000B000208F2F6
:1008F200C0E0C0D0050CE50C7002050BC39410E5F6
:100902000B94274037750B00750C00D3E50E94004D
:10091200E50D9400400CD2A4E50E150E7006150DDF
:100922008002C2A4D3E5099400E5089400400DE5D5
:100932000AB44E08E509150970021508D0D0D0E0B6
:010942003282
:100A0E00D3EF9400EE940040217D027C007BEF7AC0
:100A1E0000EB1B70011AEB4A70F7ED1D70011CED17
:0A0A2E004C70EAEF1F70D91E80D64D
:010A3800229B
:060943007D017C00AF10F5
:10094900EC7033ED24FE6012146019146020240346
:100959007024C2A0D2A1D2A2D2A3D2A0C2A1D2A2F3
:10096900D2A38012D2A0D2A1C2A2D2A38008D2A0BF
:10097900D2A1D2A2C2A38F807F037E00120A0ED217
:08098900A0D2A1D2A2D2A32248
:10099100E50F2481603724C0602F24E0602724F014
:1009A100601F24F8601724FC600F24FE6007147098
:1009B1001F8512102285131022851410228515100F
:1009C10022851610228517102285181022851910EC
:0109D1002203
:100A5E005389F0438902758CA4758AA4D2A9D28CCD
:030A6E00D2AF22E2
:10080C0002088CE493A3F8E493A34003F68001F26E
:10081C0008DFF48029E493A3F85407240CC8C333ED
:10082C00C4540F4420C8834004F456800146F6DFBC
:10083C00E4800B0102040810204080900A39E47E09
:10084C00019360BCA3FF543F30E509541FFEE493B1
:10085C00A360010ECF54C025E060A840B8E493A378
:10086C00FAE493A3F8E493A3C8C582C8CAC583CAA3
:10087C00F0A3C8C582C8CAC583CADFE9DEE780BE5B
:010A5D000098
:00000001FF
