:030000000208A84B
:0C08A800787FE4F6D8FD7581260208EF89
:1009CD00526561647920746F20616E737765722151
:1009DD00002020202020202020202020202020202A
:1009ED00200054696D6520697320676F696E673AE1
:1009FD0020200057686F276C6C2067657420697420
:040A0D003A2020006B
:100ABD00011CFF02170000021900010214000002C0
:060ACD001D000001164EA1
:10080000120BABC2A4E4F5B0120BBE7BFF7A0979E0
:10081000CDE4F5237D01120B957BFF7A0979DEE4A7
:10082000F5237D02120B9520A7E17BFF7A0979EF72
:10083000E4F5237D01120B957BFF7A0A7900E4F53C
:10084000237D02120B9530A7FD751900751A01D290
:10085000A475140075150A120A52E51E6401451D9F
:100860007006F51DF51E80A3E590F4601FE51CB42D
:10087000FF1A85901B120A117B0F7D02AF1C120B11
:10088000D0751659751900751A01D2A420A7C83061
:10089000A7FD751900751A01D2A4751CFF751D00FE
:0808A000751E0175164E80AFB4
:100A52007B0F7D02AF1C120BD0D3E5159400E51479
:100A620094004017D3E515940AE5149400500CE560
:100A720015242FFF7B0F7D01020BD075164E7519C1
:100A820000751A01D2A4751CFF751D00751E012286
:03000B00020934B3
:10093400C0E0C0D00518E51870020517C39410E58F
:100944001794274037751700751800D3E51A9400DB
:10095400E5199400400CD2A4E51A151A700615196D
:100964008002C2A4D3E5159400E5149400400DE57B
:1009740016B44E08E515151570021514D0D0D0E044
:010984003240
:100A9200D3EF9400EE940040217D027C007BEF7A3C
:100AA20000EB1B70011AEB4A70F7ED1D70011CED93
:0A0AB2004C70EAEF1F70D91E80D6C9
:010ABC002217
:100A1100E51B2481603724C0602F24E0602724F087
:100A2100601F24F8601724FC600F24FE6007147017
:100A31001F751C3122751C3222751C3322751C3422
:100A410022751C3522751C3622751C3722751C38FF
:010A51002282
:100BAB005389F0438902758CA4758AA4D2A9D28C7F
:030BBB00D2AF2294
:100B4600C2A0C2A1C2A28F807F017E00120B07D273
:0B0B5600A27F017E00120B07C2A2224A
:100B6100D2A0C2A1C2A28F807F017E00120B07D248
:0B0B7100A27F017E00120B07C2A2222F
:100B27008F248D25E524B40108E5252480FF120BC9
:0F0B370046E524B40208E52524C0FF120B462230
:100AE2008B248A258926AB24AA25A926120B7C6091
:100AF200130526E5267002052514F9120B7CFF1258
:050B02000B6180E222FE
:100BBE007F38120B46120BE07F06120B467F0102A6
:020BCE000B46D4
:050BE0007F0C020B4632
:050BE5007F08020B4631
:100B95008B1F8A208921AF05AD23120B27AB1FAA16
:060BA50020A921020AE272
:100BD0008F1FAE03AF05AD06120B27AF1F020B61CF
:100B0700E4FDFCC3ED9FEC9E5015E4FBFA0BBB0024
:0F0B1700010AEB64704A70F50DBD00010C80E41B
:010B260022AC
:0E0AD3000C08C0F9A4B0999282F88090888334
:10098500EC7033ED24FE601214601914602024030A
:100995007024D2A0C2A1C2A2C2A3C2A0D2A1C2A2E7
:1009A500C2A38012C2A0C2A1D2A2C2A38008C2A0C3
:1009B500C2A1C2A2D2A38F807F017E00120A92C279
:0809C500A0C2A1C2A2C2A3223C
:1008B400020800E493A3F8E493A34003F68001F252
:1008C40008DFF48029E493A3F85407240CC8C33345
:1008D400C4540F4420C8834004F456800146F6DF14
:1008E400E4800B0102040810204080900ABDE47EDD
:1008F400019360BCA3FF543F30E509541FFEE49309
:10090400A360010ECF54C025E060A840B8E493A3CF
:10091400FAE493A3F8E493A3C8C582C8CAC583CAFA
:10092400F0A3C8C582C8CAC583CADFE9DEE780BEB2
:010AE1000014
:100B7C00BB010689828A83E0225002E722BBFE0277
:090B8C00E32289828A83E49322AA
:00000001FF
