:0300000002094CA6
:0C094C00787FE4F6D8FD7581280209933D
:100A49002020574A32303232313231313434202089
:100A5900002057656C636F6D6520746F2054454C99
:020A6900450046
:070B0C000219000101085865
:1008BE00751BFF751C0A751D49751EFF751F0A7580
:1008CE00205AE4FF7E1078097420F608DEFC7E00C4
:1008DE007F10120AD3AB1EAA1FA920E4F525FD1224
:1008EE000ABDAB1BAA1CA91DE4F5257D01120ABD8C
:1008FE00E51A451960DC75907F120800E50864580A
:10090E0060EEE508640C600BE508640B6005120AE6
:10091E00278012E508B40C05120A6B8008E508B4AE
:10092E000B03120AFF7B007A007909E4F5257D019D
:0E093E00120ABDE51A451960991209DE80B251
:10080000750858E508645860030208BD75907FC2FA
:10081000907F01FE1209E2E590647E602D1209DEF0
:10082000AF90EF24C2601B24E0601224F060092422
:10083000F87012750801800D7508048008750807A6
:10084000800375080BE590B47EFBD290C291E590D1
:10085000647D602D1209DEAF90EF24C3601B24E09D
:10086000601224F0600924F87012750802800D757A
:10087000080580087508088003E4F508E590B47D54
:10088000FBD291C292E590647B602D1209DEAF909D
:10089000EF24C5601B24E0601224F0600924F87086
:1008A00012750803800D7508068008750809800315
:0E08B00075080CE590B47BFBD292020803227F
:0A09D800C2A1C2A28F807F017E0041
:1009E200E4FDFCC3ED9FEC9E5015E4FBFA0BBB004B
:0F09F200010AEB64704A70F50DBD00010C80E442
:010A010022D2
:0D0AE500C2A01209D8D2A21209E2C2A222B8
:0D0AF200D2A01209D8D2A21209E2C2A2229B
:100A88008F26A905E5267007E92480FF120AE5E507
:0C0A980026B40107E924C0FF120AE52281
:100A02008B268A278928AB26AA27A928120AA4603E
:100A1200130528E5287002052714F9120AA4FF120B
:050A22000AF280E2224F
:100AD3007F38120AE5120B147F06120AE57F010222
:020AE3000AE522
:050B14007F0C020AE560
:050B19007F08020AE55F
:100ABD008B218A228923AF05AD25120A88AB21AA85
:060ACD0022A923020A0227
:050B1E00EF2430FF226E
:100A2700E4FFFE740A2FF8E6FD74092FF8A6050FF8
:100A3700BF00010EEF640F4E70E9AF08120B1E8F57
:010A47001896
:010A4800228B
:100A6B007F0F7E0074082FF8E6FD74092FF8A6059A
:0C0A7B00EF1F70011EEF4E70EB7509209C
:010A8700224C
:0C0AFF00E4FF7E1078097420F608DEFC8D
:010B0B0022C7
:100958000208BEE493A3F8E493A34003F68001F2EF
:1009680008DFF48029E493A3F85407240CC8C333A0
:10097800C4540F4420C8834004F456800146F6DF6F
:10098800E4800B0102040810204080900B0CE47EE8
:10099800019360BCA3FF543F30E509541FFEE49364
:1009A800A360010ECF54C025E060A840B8E493A32B
:1009B800FAE493A3F8E493A3C8C582C8CAC583CA56
:1009C800F0A3C8C582C8CAC583CADFE9DEE780BE0E
:010B130000E1
:100AA400BB010689828A83E0225002E722BBFE0250
:090AB400E32289828A83E4932283
:00000001FF
