:03000000020CA44B
:0C0CA400787FE4F6D8FD758166020CEB49
:10103C00E4FDFCC3ED9FEC9E5015E4FBFA0BBB00EA
:0F104C00010AEB64704A70F50DBD00010C80E4E1
:01105B002272
:10112F002057594D2032303232313231323138205E
:01113F0000AF
:030EE700011F5890
:100E27007508FF750911750A2FC2A4C2A512111DF5
:100E3700AB08AA09A90AE4F50FFD1210E11210F791
:100E4700120F797B007A007955E4F50F7D011210B6
:100E5700E120A7137B007A00795D750F087D0112E9
:100E670010E112110A800E30A70BC28CC2A9120919
:100E77000FD28CD2A91210C930A5D61209E6E51FE8
:080E8700645860CDC2A580C9CA
:10107A00C2A0C2A1C2A28F807F017E0012103CD200
:0B108A00A27F017E0012103CC2A222D7
:10109500D2A0C2A1C2A28F807F017E0012103CD2D5
:0B10A500A27F017E0012103CC2A222BC
:10105C008F108D11E5107008E5112480FF12107AA5
:0E106C00E510B40108E51124C0FF12107A222D
:100FCD008B108A118912AB10AA11A9121208F660A2
:100FDD00130512E5127002051114F91208F6FF122D
:050FED00109580E222D6
:10111D007F3812107A1211607F0612107A7F010249
:02112D00107A36
:051160007F0C02107A73
:051165007F0802107A72
:1010E1008B0B8A0C890DAF05AD0F12105CAB0BAAEF
:0610F1000CA90D020FCD59
:101140008F0BAE03AF05AD0612105CAF0B0210950E
:1009E600751F58E51F64586003020AB175907FC2EF
:1009F600907F01FE12103CE590647E602FAF90EF71
:100A060024C2601B24E0601224F0600924F87012EE
:100A1600751F01800D751F048008751F07800375FB
:100A26001F0BE590647E6004D2A480F6D290C2913A
:100A3600E590647D602FAF90EF24C3601B24E060D7
:100A46001224F0600924F87012751F02800D751FBC
:100A5600058008751F088003E4F51FE590647D6036
:100A660004D2A480F6D291C292E590647B602FAF47
:100A760090EF24C5601B24E0601224F0600924F87E
:100A86007012751F03800D751F068008751F09807B
:100A960003751F0CE590647B6004D2A480F6D292A5
:0C0AA600C2A430A706120D300209E9229C
:1011500054696D652069732030303A30303A303050
:060EEA00C10002650000DA
:1010F7005389F0438902758CA4758AA4D2A9D28C2E
:03110700D2AF2242
:03000B00020E8F53
:100E8F00C0E0C0F0C083C082C0D075D000C000C029
:100E9F0001C002C003C004C005C006C0070566E557
:100EAF006670020565C39410E5659427400F75655C
:100EBF0000756600120FF2EF4E6002D200D007D01D
:100ECF0006D005D004D003D002D001D000D0D0D0AE
:080EDF0082D083D0F0D0E03294
:100FF200E564C39439500405648016756430E56372
:10100200C394355004056380087563307E007F0108
:0510120022E4FEFF22B4
:10101700E561C39439500405618016756130E56058
:10102700C394355004056080087560307E007F01E9
:0510370022E4FEFF228F
:100F3600E55EC39439500AE55DC394325003055EFD
:100F460022E55EB4390DE55DC394325006755E3018
:100F5600055D22E55EC394335008E55DB4320305B2
:100F66005E22E55EB4330BE55DB43206755E307520
:030F76005D3022C9
:100F7900780B7C007D007BFF7A1179507E007F1011
:100F89001208D0E4FFFE740B2FF8E6FD74552FF814
:0D0F9900A6050FBF00010EEF64104E70E9B9
:010FA6002228
:10110A0030000F121017EF4E6003120F36C2001292
:03111A000DAF22F4
:080EF000021B0001021D0005B8
:10090F007B007A00795D750F087D011210E11209E5
:10091F00E6E51B60030209E5E51C24FE6037146061
:10092F00701470030209C4240360030209E5E51F74
:10093F00C3940340030209E5E51F2430F55D7B00F6
:10094F007A00795D750F087D011210E1051CE51C19
:10095F007002051B22E51FC3940A5009E55D24D0E0
:10096F00C39402400FE51FC39404506AE55D24D081
:10097F0064027062E51F2430F55E7B007A00795DBA
:10098F00750F087D011210E1051CE51C7002051B97
:10099F0022E51FC39406503EE51F2430F5607B000F
:1009AF007A00795D750F087D011210E1051CE51CB9
:1009BF007002051B22E51FC3940A501AE51F24304D
:1009CF00F5617B007A00795D750F087D011210E1EA
:0709DF00751B00751C0122CD
:100D3000D3E51E9400E51D9400401ED3E51E9414D7
:100D4000E51D940050137B007A00795D750F087DD6
:100D5000011210E175B00F804DD3E51E9414E51D0E
:100D600094004037E51B703EE51C24FE60111460C2
:100D7000151460192403702E75B0F07B088013756C
:100D8000B0F07B09800C75B0F07B0B800575B0F07E
:100D90007B0C7D017F20121140800BE51E451D70EC
:0F0DA00005F51D751E28E51E151E7002151D2276
:1010B0002057594D203230323231323132313820DE
:0910C000004F464600204F4E008F
:100EF800203021313233343132333431323334001B
:100F0800000000416C61726D313E30363A3330205A
:100F18004F4646416C61726D323E30363A3331206D
:0D0F28004F464601510001540102520000E5
:1010C900C290755101120C13D290C292755102123D
:0810D9000C13D292E4F5512240
:100C1300309603020CA330A703020CA37F017E00CE
:100C230012103C209604D2A480F9C2A4D290D2928E
:100C3300E55164016006E55164027064E55175F0A5
:100C430010A42421F9E4FAFBF50FFD1210E17B0057
:100C53007A007955E4F50F7D011210E112110A12A1
:100C63000B72755200755307AB53E551C454F0240E
:100C7300212BF8E6FFE4FD1211400553E553700202
:100C83000552C3940CE5526480948040DB120FA795
:100C9300E55170BA7BFF7A1079B0F50FFD1210E1C0
:010CA300222E
:100B72001209E6E55424FE602214605C14607424B9
:100B8200036003020C12E51FC394035049E51F24BE
:100B920030FFE551C454F024288050E51FC3940A65
:100BA2005010E551C454F02428F8E624D0C394022E
:100BB2004016E51FC39404501DE551C454F0242887
:100BC200F8E624D0FFBF020EE51F2430FFE551C432
:100BD20054F0242980158035E51FC394065012E590
:100BE2001F2430FFE551C454F0242BF8A607055406
:100BF20022801AE51FC3940A5013E51F2430FFE533
:100C020051C454F0242CF8A60775540122120AB2DA
:010C120022BF
:100AB200E51F640B7027E55164017021E551C454B0
:100AC200F02430F8E6644E70028038E551C454F0E8
:100AD2002430F8E664466003020B718059E51FB4C6
:100AE2000C08E551B40103020B6EE51F640C707231
:100AF200E5516402706CE551C454F02430F8E664A8
:100B02004E7026E551C454F0242EF8764FE551C4B8
:100B120054F0242FF87646E551C454F02430F87688
:100B2200467BFF7A1079C18031E551C454F02430FC
:100B3200F8E664467039E551C454F0242EF8762064
:100B4200E551C454F0242FF8764FE551C454F024F3
:100B520030F8764E7BFF7A1079C5750F0DE4FD02F1
:100B620010E1E51FB40B08E551B40203E4F551228C
:100FA700E55424FE600E14600F14601024037015BE
:100FB7007B07800A7B0880067B0A80027B0BE4FDA7
:060FC7007F201211402200
:100DAF00C2A5755200755301AF53EFC454F02430F0
:100DBF00F8E6644E7053EFC454F02429F8E6B55E9C
:100DCF00047F0180027F00AE53EEC454F02428F854
:100DDF00E6B55D047D0180027D00ED5FFFEEC4543A
:100DEF00F0242BF8E6B560047E0180027E00EE5FF2
:100DFF00FFE553C454F0242CF8E6B561047E01805E
:100E0F00027E00EE5F6002D2A50553E55370020526
:080E1F00526403455270912258
:100CB000020E27E493A3F8E493A34003F68001F225
:100CC00008DFF48029E493A3F85407240CC8C33345
:100CD000C4540F4420C8834004F456800146F6DF14
:100CE000E4800B0102040810204080900EE7E47EAF
:100CF000019360BCA3FF543F30E509541FFEE49309
:100D0000A360010ECF54C025E060A840B8E493A3CF
:100D1000FAE493A3F8E493A3C8C582C8CAC583CAFA
:100D2000F0A3C8C582C8CAC583CADFE9DEE780BEB2
:010F350000BB
:10080000E709F608DFFA8046E709F208DFFA803EDA
:1008100088828C83E709F0A3DFFA8032E309F608C7
:10082000DFFA8078E309F208DFFA807088828C832F
:10083000E309F0A3DFFA806489828A83E0A3F608E3
:10084000DFFA805889828A83E0A3F208DFFA804CBD
:1008500080D280FA80C680D4806980F28033801094
:1008600080A680EA809A80A880DA80E280CA8033FD
:1008700089828A83ECFAE493A3C8C582C8CCC58375
:10088000CCF0A3C8C582C8CCC583CCDFE9DEE78045
:100890000D89828A83E493A3F608DFF9ECFAA9F0C4
:1008A000EDFB2289828A83ECFAE0A3C8C582C8CC1A
:1008B000C583CCF0A3C8C582C8CCC583CCDFEADE33
:1008C000E880DB89828A83E493A3F208DFF980CC95
:1008D00088F0EF60010E4E60C388F0ED2402B4048E
:1008E0000050B9F582EB2402B4040050AF23234535
:0608F00082239008507302
:1008F600BB010689828A83E0225002E722BBFE0200
:09090600E32289828A83E4932232
:00000001FF
