:03000000020800F3
:0C080000787FE4F6D8FD758119020847E6
:1009E4000A103F065B4F666D7D077F6F010F88021B
:0B09F4000A0000020C000102080000D5
:10088C00120A00C2A420A7FD750C00750D01E5B07D
:10089C00F46022E50FB4881D85B00E1209447D0169
:1008AC007C00AF0F120985750C00750D02750800E0
:1008BC0075090A80D9E50F648860D3D3E5099400E3
:1008CC00E5089400401BD3E509940AE50894005010
:1008DC0010740F2509F8E6FF7D027C001209858053
:0C08EC00AD750C00750D02750F88809929
:1009C2007D347C00AB07AA06D3EB9400EA94004086
:1009D20007EB1B70F31A80F0ED1D70011CED4C70DB
:0109E200E331
:0109E30022F1
:10098500EC7039ED24FE601014601514601C24030E
:10099500702AC2A0D2A18004D2A0C2A1D2A2800690
:1009A500D2A0D2A1C2A2D2A38008D2A0D2A1D2A2A3
:0D09B500C2A38F80D2A0D2A1D2A2D2A322D1
:10094400E50E2481603724C0602F24E0602724F062
:10095400601F24F8601724FC600F24FE60071470E5
:100964001F85110F2285120F2285130F2285140F64
:100974002285150F2285160F2285170F2285180F41
:010984002250
:100A00005389F0438902758CA4758AA4D2A9D28C2B
:030A1000D2AF2240
:03000B000208F8F0
:1008F800C0E0C0D0050BE50B7002050AC39410E5F3
:100908000A94274032750A00750B00D3E50D940050
:10091800E50C9400400CD2A4E50D150D7006150CDD
:100928008002C2A4D3E5099400E50894004008E5D4
:0C09380009150970021508D0D0D0E0327B
:10080C0002088CE493A3F8E493A34003F68001F26E
:10081C0008DFF48029E493A3F85407240CC8C333ED
:10082C00C4540F4420C8834004F456800146F6DFBC
:10083C00E4800B01020408102040809009E4E47E5F
:10084C00019360BCA3FF543F30E509541FFEE493B1
:10085C00A360010ECF54C025E060A840B8E493A378
:10086C00FAE493A3F8E493A3C8C582C8CAC583CAA3
:10087C00F0A3C8C582C8CAC583CADFE9DEE780BE5B
:0109FF0000F7
:00000001FF
