:03000000020800F3
:0C080000787FE4F6D8FD75811D020847E2
:100A18000C103F065B4F666D7D077F6F777C010F7B
:100A280088020A0000020C000102080000021C00F3
:010A380000BD
:10088C00120A3AC2A420A7FD750C00750D01D2A462
:10089C00E51D6401451C7008F51CF51DC2A680E51C
:1008AC00E5B0F4601EE50FB4881985B00E1209ACE2
:1008BC00120912750C00750D02D2A4750800750989
:1008CC000A80CDE50F648860C7120912D3E509943C
:1008DC0000E5089400401BD3E509940AE508940050
:1008EC005010740F2509F8E6FF7D047C00120918DE
:1008FC0080D7750C00750D02D2A4750F88751C007D
:06090C00751D0102089CAC
:03000B0002096087
:10096000C0E0C0D0050BE50B7002050AC39410E58A
:100970000A94274032750A00750B00D3E50D9400E8
:10098000E50C9400400CD2A4E50D150D7006150C75
:100990008002C2A4D3E5099400E50894004008E56C
:0C09A00009150970021508D0D0D0E03213
:1009ED00D3EF9400EE940040217D027C007BEF7AE2
:1009FD0000EB1B70011AEB4A70F7ED1D70011CED39
:0A0A0D004C70EAEF1F70D91E80D66E
:010A170022BC
:060912007D017C00AF0F27
:10091800EC7033ED24FE6012146019146020240377
:100928007024C2A0D2A1D2A2D2A3D2A0C2A1D2A224
:10093800D2A38012D2A0D2A1C2A2D2A38008D2A0F0
:10094800D2A1D2A2C2A38F807F037E001209EDD26A
:08095800A0D2A1D2A2D2A32279
:1009AC00E50E2481603724C0602F24E0602724F0FA
:1009BC00601F24F8601724FC600F24FE600714707D
:1009CC001F85110F2285120F2285130F2285140FFC
:1009DC002285150F2285160F2285170F2285180FD9
:0109EC0022E8
:100A3A005389F0438902758CA4758AA4D2A9D28CF1
:030A4A00D2AF2206
:10080C0002088CE493A3F8E493A34003F68001F26E
:10081C0008DFF48029E493A3F85407240CC8C333ED
:10082C00C4540F4420C8834004F456800146F6DFBC
:10083C00E4800B0102040810204080900A18E47E2A
:10084C00019360BCA3FF543F30E509541FFEE493B1
:10085C00A360010ECF54C025E060A840B8E493A378
:10086C00FAE493A3F8E493A3C8C582C8CAC583CAA3
:10087C00F0A3C8C582C8CAC583CADFE9DEE780BE5B
:010A390000BC
:00000001FF
