:0902C20001230101220001200AC0
:10032300E5236019D3E520940074809480500CE594
:0E0333002370047F0180027F008F231520229B
:10000E001203411203878F21E52114B40900400326
:10001E0002012090002F75F003A4C58325F0C5833F
:10002E007302004A02006202007D0200970200B1D4
:10003E000200C80200DF0200F6020110E522600392
:10004E000201207D017F0412000375203C75220100
:10005E007F648016E52260030201207D027F041278
:10006E00000375203C7522017FC87E0002010BE55E
:10007E002260030201207D037F0412000375203CE1
:10008E007522017F2C7E018074E52260030201201F
:10009E007D047F0412000375203C7522017F907E43
:1000AE0001805AE522706B7D057F041200037520D6
:1000BE003C7522017FF47E018043E52270547D065B
:1000CE007F0412000375203C7522017F587E02804A
:1000DE002CE522703D7D077F0412000375203C75D0
:1000EE0022017FBC7E028015E52270267D087F04EA
:1000FE0012000375203C7522017F207E031202E45C
:10010E008010E4FD7F0412000375200AE4F52275C9
:10011E002301E52075F00A84FD7F01120003E5201E
:0E012E0075F00A84ADF07F021200030200118A
:03000B0002013CB3
:10013C00C0E0C0F0C083C082C0D075D000C000C089
:0D014C0001C002C003C004C005C006C0070A
:10015900758A18758CFC051BE51B7002051A051DAF
:10016900E51D7002051C051FE51F7002051EC3E58C
:100179001B9414E51A94004009751A00751B0012A6
:100189000356C3E51D9402E51C94004009751C0043
:10019900751D00120304C3E51F94E8E51E9403408E
:0A01A90009751E00751F00120323E4
:1001B300D007D006D005D004D003D002D001D000A0
:0B01C300D0D0D082D083D0F0D0E0324A
:10029300E4FF20B0010F20B1027F0220B2027F03EE
:1002A30020B3027F0420B4027F0520B5027F06201D
:0E02B300B6027F0720B7027F0820A7027F094E
:0102C100221A
:100356008525241202938F25E5246006EF70038518
:0203660024264B
:010368002272
:05038700AF26E4F5269D
:01038C00224E
:0E036900EF600B7E027DEFDDFEDEFC1F80F2FA
:010377002263
:1002CB000C0E3F065B4F666D7D077F6F0040050987
:0802DB00000A0A0B0A010801E8
:10025A00EF24FE601014601714601E24037022C27B
:10026A00A0D2A18004D2A0C2A1D2A3D2A58012D2C8
:10027A00A0D2A1D2A3C2A58008D2A0D2A1C2A3D2E1
:09028A00A5740E2DF8E6F58022A2
:0700030074092FF8A6052285
:1003040074092508F8E6FD7C00AF0812025A0508B6
:0E031400C3E5089405748094804003750801C9
:0103220022B8
:10034100D2AFD2A95389F0438901758A18758CFC03
:05035100D28CC28D22D8
:0E03780000007F177ECD7D78DDFEDEFCDFFA13
:010386002254
:0402E400AB07AA06B4
:1002E800900000EB25E0FFEA33FEC3E5829FE5833B
:0B02F8009E5008B2A2120378A380E819
:0103030022D7
:030000000201CE2C
:0C01CE00787FE4F6D8FD7581260202154A
:1001DA0002000EE493A3F8E493A34003F68001F22D
:1001EA0008DFF48029E493A3F85407240CC8C33326
:1001FA00C4540F4420C8834004F456800146F6DFF5
:10020A00E4800B01020408102040809002C2E47EC0
:10021A00019360BCA3FF543F30E509541FFEE493E9
:10022A00A360010ECF54C025E060A840B8E493A3B0
:10023A00FAE493A3F8E493A3C8C582C8CAC583CADB
:10024A00F0A3C8C582C8CAC583CADFE9DEE780BE93
:0102E300001A
:00000001FF
