:030000000208BE35
:0C08BE00787FE4F6D8FD7581280209055A
:100A290020205A4B323032323132313138322020A3
:100A3900002057656C636F6D6520746F2054454CB9
:020A4900450066
:070AC20002190000010858B1
:10094A00751BFF751C0A751D29751EFF751F0A7513
:10095A00203AE4FF7E1078097420F608DEFC7E0057
:10096A007F10120A96AB1EAA1FA920E4F525FD12D4
:10097A000A80AB1BAA1CA91DE4F5257D01120A8079
:10098A00E59060DE75907F120800E5086458600300
:10099A00120A077B007A007909E4F5257D01120A1B
:0E09AA0080E59060BD7F017E001209C280D200
:10080000750858E508645860030208BD75907FC2FA
:10081000907F02FE1209C2E590647E602D1209BE2F
:10082000AF90EF24C2601B24E0601224F060092422
:10083000F87012750801800D7508048008750807A6
:10084000800375080BE590B47EFBD290C291E590D1
:10085000647D602D1209BEAF90EF24C3601B24E0BD
:10086000601224F0600924F87012750802800D757A
:10087000080580087508088003E4F508E590B47D54
:10088000FBD291C292E590647B602D1209BEAF90BD
:10089000EF24C5601B24E0601224F0600924F87086
:1008A00012750803800D7508068008750809800315
:0E08B00075080CE590B47BFBD292020803227F
:0A09B800C2A1C2A28F807F027E0060
:1009C200E4FDFCC3ED9FEC9E5015E4FBFA0BBB006B
:0F09D200010AEB64704A70F50DBD00010C80E462
:0109E10022F3
:0D0AA800C2A01209B8D2A21209C2C2A22235
:0D0AB500D2A01209B8D2A21209C2C2A22218
:100A4B008F26A905E5267007E92480FF120AA8E581
:0C0A5B0026B40107E924C0FF120AA822FB
:1009E2008B268A278928AB26AA27A928120A67609C
:1009F200130528E5287002052714F9120A67FF1269
:050A02000AB580E222AC
:100A96007F38120AA8120ACA7F06120AA87F010224
:020AA6000AA89C
:050ACA007F0C020AA8E8
:050ACF007F08020AA8E7
:100A80008B218A228923AF05AD25120A4BAB21AAFF
:060A900022A9230209E285
:050AD400EF2430FF22B9
:100A0700E4FFFE740A2FF8E6FD74092FF8A6050F18
:100A1700BF00010EEF640F4E70E9AF08120AD48FC2
:010A270018B6
:010A280022AB
:1008CA0002094AE493A3F8E493A34003F68001F2F1
:1008DA0008DFF48029E493A3F85407240CC8C3332F
:1008EA00C4540F4420C8834004F456800146F6DFFE
:1008FA00E4800B0102040810204080900AC2E47EC2
:10090A00019360BCA3FF543F30E509541FFEE493F2
:10091A00A360010ECF54C025E060A840B8E493A3B9
:10092A00FAE493A3F8E493A3C8C582C8CAC583CAE4
:10093A00F0A3C8C582C8CAC583CADFE9DEE780BE9C
:010AC900002C
:100A6700BB010689828A83E0225002E722BBFE028D
:090A7700E32289828A83E49322C0
:00000001FF
